:1000000000200200392E0000352E00006113000090
:1000100000000000000000000000000000000000E0
:10002000000000000000000000000000AD13000010
:100030000000000000000000AF130000B11300003A
:10004000FD240000751400008D140000A5140000AC
:10005000BD140000D5140000ED14000005150000CB
:100060001D150000611700007517000089170000BA
:100070009D170000B1170000C517000043140000D1
:100080004B14000053140000352E0000352E0000E4
:10009000352E0000352E0000352E0000352E0000D4
:1000A000352E0000352E0000352E0000352E0000C4
:1000B000352E0000352E0000352E0000352E0000B4
:1000C000C9070000A9070000E1070000210800009F
:1000D00095080000010A0000030A0000090A000058
:1000E000EB0D0000ED0D0000F50D0000F90D000016
:1000F000490E0000FD0F0000110E0000FB0D000076
:10010000290A00002B0A0000071000003D0C000027
:100110002F0A0000190B0000430A0000590A0000D2
:100120006F0A0000A30A0000850A0000330B0000DC
:10013000910A0000B10D0000850D0000BD0A00000D
:10014000D30A0000ED0A0000030B0000211000009C
:10015000231000002910000081100000351200005B
:10016000351000006D110000211100003911000050
:100170002D11000059110000051200005D1400004F
:10018000791500004D1600005D160000E91700000B
:10019000FB170000D91700000B1800001D18000005
:1001A0002F180000411800005318000065180000C7
:1001B00077180000891800009D1800008D150000B8
:1001C0009D150000AD150000C7150000E1150000E9
:1001D000FB1500001516000031160000ED18000098
:1001E00009190000C918000035190000B5190000F0
:1001F000E5190000F1190000591A0000851A0000E5
:10020000A91A00008D210000CD1D0000411E000034
:100210008D1E00007D1F0000991F0000A91F000017
:10022000C11F0000B922000025200000F5200000B9
:100230004D2100008923000061210000952200006B
:10024000AD040000290400008D0400000905000031
:10025000AD0600000506000039070000E5050000B6
:100260006507000031100000252500004125000031
:100270004D25000069250000A92500002D2600005D
:10028000CD260000FD2600001D270000E927000004
:100290006528000081280000B12800004D290000D9
:1002A000E1280000C1290000052C0000292C0000D5
:1002B000ED2B00004D2D0000E12C0000792D0000F9
:1002C000012E0000952E0000C12E0000CD2E000052
:1002D0002D2F0000552F0000752F0000852F0000E6
:1002E000952F0000A52F0000D52F00004D310000F4
:1002F0000532000089320000DD320000D9340000F0
:10030000313300005935000069350000A535000083
:10031000DD350000E9350000F93500004536000004
:100320007D360000C9260000C9260000C92600004D
:10033000C9260000C9260000C9260000C926000001
:10034000C9260000C9260000C9260000C9260000F1
:10035000C9260000C92600007112000089120000A1
:10036000A1120000B9120000D1120000E912000031
:10037000011300001913000031130000491300009D
:1003800061130000AD130000AF130000B1130000B3
:10039000FD240000751400008D140000A514000059
:1003A000BD140000D5140000ED1400000515000078
:1003B0001D15000061170000751700008917000067
:1003C0009D170000B1170000C5170000431400007E
:1003D0004B1400005314000001040000E925000044
:1003E000552600008130000099300000B130000037
:1003F000C9300000E1300000F9300000153600007F
:10040000074B10B51A6809231A4207D1054BFC3374
:100410005A6E130C012B01D11343984710BDC046EF
:10042000003001200004010070B5144C0125236840
:100430009B0719D52368AB432B432360104B1B68E4
:100440002B4212D13F210F4A082513688B431360BA
:1004500002222368934323600B4B1B682B4208D175
:10046000012223689343236070BD3F2002F0DEF831
:10047000E4E7FF2002F0DAF8EEE7C0460050012082
:100480000030012014300120147401203F21054A5E
:1004900013688B4313601023034A11680B431360E6
:1004A0007047C04614300120A030012070B5134CB5
:1004B00001232268920717D40222082521680A43E3
:1004C000226022689A43134323600D4B1B682B4222
:1004D0000BD009250B4B1B682B420AD1FFF7D6FF27
:1004E000012223689343236070BDFF2002F09EF831
:1004F000EBE7FF2002F09AF8ECE7C046005001203D
:100500001474012000300120F0212C4B0200C3188C
:1005100030B5012009028B424AD2822104304902BF
:100520008A4245D30122264908680400144010423B
:10053000FAD124481A0B046004681B05DB0E002C5A
:1005400003D004680220A24232D8002A04D1EF2549
:100550001D4C2068284020601C4802603F201C4A37
:1005600013601C4B1A6882431000022202431A6077
:10057000194A1268002A1FD1DF20184A1468042281
:10058000044216D116480068104202D11A600C329B
:1005900002E008221A60103201200C680442FCD1EB
:1005A0000E490A6018680C231840434258418000E5
:1005B00030BD1A601022EFE70422E7E70000FFFFDA
:1005C00000300120C8300120B83001200C3001205B
:1005D0000830012014300120183001201C30012087
:1005E000043001200223054A11680B4313600123E4
:1005F00003490A681A42FCD17047C04610300120F6
:1006000000300120C022264930B50B6893431A0000
:100610004023134320220B60224B18680243012021
:100620001A60214A14680442FCD104201C6820434B
:100630001860012014680442FCD110688006800F05
:1006400003281FD0C0250C68AC43250080242C4310
:100650000C6020241D682C431C6001241568254271
:10066000FCD104241D682C431C600124156825421C
:10067000FCD10325146824092C40844202D9106857
:1006800000092840C0250C68AC430C6020211C6880
:1006900021431960012311681942FCD1C0B230BD59
:1006A000143001201030012000300120F8B51D4D1C
:1006B0002B681B0701D4FFF795FFE72201242B6865
:1006C000194E13402B603368184F234333603B6847
:1006D0002342FCD1FFF796FF002807D11021144BCD
:1006E000144A186013688B431360F8BDFFF77AFF54
:1006F000E7222B6813402B6033681C4301233460CE
:100700003A6814001C401A42FAD1FFF77BFF10210F
:10071000074B084A1C6013688B431360431E9841C3
:10072000C0B2E2E71C30012010300120003001206F
:1007300014300120B830012001230748026811005D
:1007400019401A42FAD1054B054A19601021136865
:100750008B4313607047C0460030012014300120E5
:10076000B8300120F0220E4B1202C318032093422E
:1007700014D2DA091B0B83400A48D106C3180320A0
:10078000490F5B188133FF331B780240520013413D
:1007900003405A1E022A01D8C01AC0B27047C04690
:1007A0000000FFFF00040100C046C046C046C0462E
:1007B000C046C046C046C046C046C046C046C04609
:1007C000C046C046C0467047062310B5034C2360A0
:1007D000FFF7EAFF0423236010BDC04600C40020D9
:1007E00000220A4B10B51A6004321A600268084BE6
:1007F0001A604268074B1A608268074B1A60C26829
:10080000064B1A60FFF7E0FF10BDC04600C4002091
:1008100024C4002028C400202CC4002030C40020A0
:1008200070B5134B04000868124D18604868124BED
:1008300018608868114B1860C968114B196005234E
:10084000002A02D0FFF7C0FF45232B60FFF7ACFF63
:100850000C4B1B6823600C4B1B6863600B4B1B68C5
:10086000A3600B4B1B68E36004232B6070BDC04684
:1008700004C4002000C4002008C400200CC40020D0
:1008800010C4002014C4002018C400201CC4002080
:1008900020C4002073B51F4E04003568FFF706FE24
:1008A000E1221D4B92009958043A9A5808040B060D
:1008B000034308020343C9B20B431849226052198B
:1008C0005218A260164A6360AD18EB182000E3606E
:1008D000FFF786FF002501F0D3FF00210122080069
:1008E00002F06EF86B1082B29B00E3181003104305
:1008F0001A6880B21204104301351860082DECD13B
:10090000002221002000FFF78BFF236801333360B2
:1009100073BDC046E4500120000001000101010147
:1009200010101010044B10B5FC335A6D130C012B32
:1009300001D11343984710BD00040100234B1B68ED
:100940001A0F02D122491A0E0A60E0221204134241
:1009500003D120491A0CD2B20A60FC2212021342BF
:1009600002D11D4A9BB213601C4B1B681A0F02D1A7
:100970001B491A0E0A60E0221204134203D11949DE
:100980001A0CD2B20A60F0221202134203D11649A5
:100990001A0AD2B20A60F022134202D1134ADBB221
:1009A0001360C022124B12021B68134203D111497B
:1009B0001A0AD2B20A60C022134202D10E4ADBB236
:1009C000136001220D4B1A607047C04600030100FE
:1009D00030740120347401203874012004030100B4
:1009E0003C740120407401204474012048740120AB
:1009F000080301004C74012050740120E4500120D0
:100A000070478020C0007047004870470004010014
:100A100030BFFDE7034B986D0130431E9841C0B2D3
:100A20007047C04600040100704740207047030033
:100A30000021FC3319601A00043B9042FAD10020D7
:100A4000704710B5FFF7E6FFED23002802D1FFF74E
:100A5000C9FD1023180010BD10B5FFF7DBFFED2313
:100A6000002802D1FFF722FD1323180010BD10B596
:100A7000FFF7D0FFED23002802D1FFF7D5FC1423A8
:100A8000180010BD10B5406802F060FB042010BDD6
:100A9000406810B5C0B200F05FFBB0235B0518439F
:100AA00010BD10B50400FFF7B5FFED23002803D1FA
:100AB0006068FFF729FD1223180010BD10B5FFF77D
:100AC000A9FFED23002802D1FFF7E0FC092318005D
:100AD00010BD07B501F0D4FE01210022080001F08D
:100AE0006FFF019001F0E4FE01980EBD10B501F01A
:100AF000C7FE002002F098F8040001F0D9FE2000A3
:100B000010BD10B501F0BCFE012002F08DF804000C
:100B100001F0CEFE200010BD10B5FFF77BFF0300F3
:100B2000ED20002B04D1FFF7C1FD88235B0518439E
:100B300010BD10B50400FFF76DFFED23002806D1AE
:100B4000A3686068D9B2C0B200F0F6FA15231800A5
:100B500010BD0000304B020010B501209A4212D0A7
:100B60000323110099430B002C498B420BD02C49D5
:100B70008B4208D0F0212B4B0902D3188B4203D2B1
:100B80001000FFF7EFFD10BD8021002389018A428C
:100B900004D2254B1B78FF2B00D10F3B23481018A4
:100BA000884204D2204B5B78FF2B00D10F3B2048BA
:100BB000101888420AD21C4B9B788C201D490002D9
:100BC0005118814209D2184B5B7918E0E0200006E9
:100BD000101888420BD2144BDB78C021090652183A
:100BE0008021C9008A420AD20F4B9B7907E0A020DE
:100BF0001149800151188142DFD20B4B1B79012032
:100C0000F02BC0D00020FF2BBDD00F3B1800431E9F
:100C100098410230B7E7C046288C0120F43F00001D
:100C2000F83F00000000FFFF0004010000E0FFFFAC
:100C30000000FEFF0000FFDF0060FFDFF8B5066880
:100C4000FF2335009D43A02304005B059D424ED049
:100C50000DD890235B059D422FD098235B059D42C4
:100C600038D088235B059D4216D03000F8BDB023F4
:100C70005B059D424FD0C023DB059D4257D0A82382
:100C80005B059D42F1D14068FFF764FF01283FD822
:100C900063681F88BFB231E04068FFF75BFFFD2348
:100CA000184208D16368A2681A602000FFF7BFFEEF
:100CB000FC342560D9E72A4DF7E74068FFF74AFF83
:100CC000FD23184204D1A36862689BB21380ECE74D
:100CD000244DEAE74068FFF73DFFFD23184204D1A9
:100CE000A3686268DBB21370DFE71F4DDDE7406881
:100CF000FFF730FF012808D863681F682000FFF75E
:100D000096FE2300F8331F60D2E70027174DF5E762
:100D10000027174DF2E74068FFF71CFF012803D8B2
:100D200063681F78FFB2E9E70027124DE6E7A023CA
:100D300005001B06F318FC350F2B0BD80E4B0F4A82
:100D4000F3189B009A58130C012B03D113439847B7
:100D50002E608AE72000FFF76AFE094B2B6084E7CC
:100D6000110000A0120000A0130000A0140000A0B9
:100D7000150000A0160000A0020000A00004010061
:100D80000000A06070B50400FFF744FEED230028CA
:100D90000CD1606801250300020A010C000E2B40F3
:100DA0002A402940284000F0AFFD0523180070BDFF
:100DB00073B50400FFF72EFE0300ED20002B13D1C6
:100DC00001256468E30AA20A610A200AE6B2240B3C
:100DD0002C402B402A40294028400196009400F0E6
:100DE000C5F9B8235B05184376BD704700487047C6
:100DF0000C000200402070477047821C831D0020B9
:100E000011780002013208439A42F9D1704700007C
:100E10000A4A030082B0824204D80132FF32012024
:100E20009A4209D8064B9B6C18000193054B9C46CF
:100E3000604443425841C0B202B070470C00020007
:100E40000004010050035E030022F8B58A800A60A6
:100E50000578437806000C00AB4203D010225C4BAF
:100E60000CC43AE0902B00D1A1E037D8722B1BD8EC
:100E70006F2B1ED8602BF1D1302121600221FF3170
:100E8000A180A3718378112B00D91300514A9B00D4
:100E90009B5851489847030EE371030C2372030AD1
:100EA0006372A072602328E02B00803BDBB2022B30
:100EB000D4D83000FFF7A1FF0700FFF7A9FF0223F6
:100EC000FF33002868D0A380802D31D017D8712D32
:100ED00044D0722D3BD0702D4CD0F8BDFF2BBDD12E
:100EE00001220A712F320A608B718378CB71C3782B
:100EF0000B7203794B7243798B72E372EDE7812DAC
:100F000007D0822DE9D11023A57123603B78E371CE
:100F1000E3E7FB0703D510232360304B1CE02023BD
:100F2000A57123603B8865721A0AE2712372D4E7C7
:100F3000BB07F0D13023A57123603B68E5721A0E20
:100F4000E2711A0C22721A0A6272A372C5E7B379AF
:100F50003B7010232360224BE380BEE71023236005
:100F6000FB07DAD4F379B1791B020B435BBA3B8000
:100F70001C4BF1E710232360BB07CED1F179B37985
:100F8000327A09021943737A120411431B060B4388
:100F90001BBA3B60144BDFE71022803DEDB22260AC
:100FA000A380022D01D8114BD6E7114BD4E70125C0
:100FB00010230D710B60FFF72DFD002806D13000C6
:100FC000FFF71BFF0543A8470A4BC5E70A4BC3E7DA
:100FD0000101AFAFD83700000C000200DDDDFFFFDC
:100FE000727200007171000070700000C0C0FFFFDD
:100FF000D0D0FFFF9090FFFF90EDFFFF0023037024
:101000000B608B80704770B51400050010000E0057
:10101000FFF70DFD2300FC34F8331E60256070BD22
:1010200070478020C00070470048704700000100F2
:1010300000207047F0B5050005A8048801201C4277
:1010400016D12600D7430018964311D13E00013037
:101050001E401F420CD12404064F1C43064B1204B1
:101060003A601C603868054B054330003D601960EC
:10107000F0BDC04614500120185001201C50012022
:10108000F7B5214A214F130094331D682B0CBB4246
:101090002DD1131DD86FADB2030CBB422AD1130062
:1010A0000833D96F80B20B0CBB4226D113008C33AE
:1010B0001B6889B21C0CBC4222D1140090342468F5
:1010C0009BB2260CA4B2BE4202D0114C2468240C60
:1010D00088321268160C92B2BE4202D00D4A1268D3
:1010E000120C0D4E35600094FFF7A4FFF7BD0A4BBC
:1010F0001D68CEE7074B1868D1E7084B1968D5E79C
:10110000034B1B68D9E7C04600040100BAAB0000DE
:101110001850012014500120105001201C500120B3
:10112000014B18607047C04610500120014B1868F1
:1011300080B270470C5001200F23064A19400E3B25
:101140008B401168002802D00B431360704799430D
:101150001160FBE7105001200F22034B10401B6869
:10116000C3400120184070470C500120F0B585B0F5
:1011700003910AA90978029001910BA90D78002B1F
:1011800005D001990120002931D005B0F0BD0199A9
:10119000002902D00220002AF7D00F210120294087
:1011A0000F0006001037B840BA408E408B40124DF9
:1011B0002C68844322432A60104A1468B4432343B2
:1011C000019C1360BC401368834302981C43884011
:1011D00014602B680A4AB3431843286003981368C5
:1011E00088400100B343194300201160CDE703207C
:1011F000002AD2D1C9E7C04614500120185001205E
:101200001C5001200F2310B51C241840084B8000EF
:10121000C0180368A343153C2140890019430160AD
:10122000032103680A408B431A43026010BDC04685
:10123000405001200B4B0C4A98331B6870B5934209
:101240000ED1002403260725084BE0B2195D0134B6
:101250000A00891032402940FFF7D4FF102CF3D147
:1012600070BDC04600040100BAABBAAB9C040100DB
:10127000044B10B5FC339A69130C012B01D11343B5
:10128000984710BD00040100044B10B5FC33DA6927
:10129000130C012B01D11343984710BD000401002A
:1012A000044B10B5FC335A6B130C012B01D11343C3
:1012B000984710BD00040100044B10B5FC339A6B35
:1012C000130C012B01D11343984710BD00040100FA
:1012D000044B10B5FC33DA6B130C012B01D1134313
:1012E000984710BD00040100044B10B5FC331A6C84
:1012F000130C012B01D11343984710BD00040100CA
:10130000044B10B5FC335A6C130C012B01D1134361
:10131000984710BD00040100044B10B5FC339A6CD3
:10132000130C012B01D11343984710BD0004010099
:10133000044B10B5FC33DA6C130C012B01D11343B1
:10134000984710BD00040100044B10B5FC331A6D22
:10135000130C012B01D11343984710BD0004010069
:101360000C4B0D4A10B51A600C4B1A6809231A422F
:1013700007D10B4BFC339A6D130C012B01D1134396
:101380009847BFF34F8F074B074ADA60BFF34F8F81
:10139000C046FDE728740120DCAC000000300120CD
:1013A0000004010000ED00E00400FA0570477047FA
:1013B0000C4B10B51A680123920711D50A4A12681E
:1013C000D2081A420CD0094A11680922114207D1E9
:1013D000074AFC32D26D110C994201D11343984750
:1013E00010BDC046005001201474012000300120BF
:1013F0000004010010B5030E20D1023807281DD8C3
:1014000002F054F904070A0D1619101301F038FE02
:1014100010BD01F041FEFBE701F04AFEF8E701F0E4
:1014200053FEF5E701F05CFEF2E701F065FEEFE741
:10143000FFF71EFFECE7FFF727FFE9E701F0D6FB18
:10144000E6E710B502F0E6F810BD10B500F022FF97
:1014500010BD10B5FEF7D4FF10BD00000122824080
:10146000024B1B681340024A1360704700040120BE
:101470000804012010B50120FFF7F0FF024BAC3348
:101480001868FFF7B7FF10BD0004010010B5022077
:10149000FFF7E4FF024BB0331868FFF7ABFF10BD56
:1014A0000004010010B50320FFF7D8FF024BB4334E
:1014B0001868FFF79FFF10BD0004010010B504205D
:1014C000FFF7CCFF024BB8331868FFF793FF10BD4E
:1014D0000004010010B50520FFF7C0FF024BBC332C
:1014E0001868FFF787FF10BD0004010010B5062043
:1014F000FFF7B4FF024BC0331868FFF77BFF10BD46
:101500000004010010B50720FFF7A8FF024BC43309
:101510001868FFF76FFF10BD0004010010B5082028
:10152000FFF79CFF024BC8331868FFF763FF10BD3D
:10153000000401000023074A1168814202D10933E7
:10154000D8B270470133DBB20432062BF4D100204D
:10155000F7E7C046CC04010002000020054B1968E3
:101560000130C0B2914203D004330828F7D10020E3
:101570007047C046AC040100012010B5FFF7ECFF36
:10158000031C002800D10123D8B210BD10B50620DD
:10159000FFF7E2FF002800D1063010BD10B507208C
:1015A000FFF7DAFF002800D1073010BD10B5022088
:1015B000FFF7D2FF002805D11030FFF7BBFF00284E
:1015C00000D1023010BD10B50320FFF7C5FF002881
:1015D00005D12030FFF7AEFF002800D1033010BD49
:1015E00010B50420FFF7B8FF002805D14030FFF701
:1015F000A1FF002800D1043010BD10B50520FFF771
:10160000ABFF002805D18030FFF794FF002800D100
:10161000053010BD10B50820FFF79EFF002806D149
:101620000130FF30FFF786FF002800D1083010BDE1
:1016300010B50920FFF790FF002806D18020800018
:10164000FFF778FF002800D1FF3010BD10B5012052
:10165000FFF770FF002800D10A3010BD10B502203E
:10166000FFF768FF002800D1FF3010BD10B5030E52
:101670000ED18023DB0098425FD01FD8402853D082
:1016800010D810284DD008D8022842D0042845D0C0
:10169000FFF7DCFF01F04CFE3FE02028F8D101F01D
:1016A000FBFC3AE080235B00984240D0DB18984274
:1016B00040D08028ECD101F007FD2EE080231B02F2
:1016C000984243D016D880239B0198423BD00AD839
:1016D00080231B01984233D080235B019842D7D1ED
:1016E000FFF7F6FD19E08023DB019842D0D1FFF728
:1016F00007FE12E080239B0298422AD08023DB025F
:10170000984229D080235B029842C1D1FFF710FE96
:1017100003E0FFF7A3FF01F073FB10BD00F0D6F963
:10172000FBE701F0ADFCF8E701F0C2FCF5E701F0E2
:10173000D7FCF2E701F0E0FCEFE7FFF7B1FDECE7E3
:10174000FFF7BAFDE9E7FFF7CFFDE6E7FFF7E4FDB6
:10175000E3E7FFF7F9FDE0E7FFF7E4F8DDE7000076
:1017600010B5034BCC331868FFF780FF10BDC0469F
:101770000004010010B5034BD0331868FFF776FF63
:1017800010BDC0460004010010B5034BD4331868E7
:10179000FFF76CFF10BDC0460004010010B5034BFD
:1017A000D8331868FFF762FF10BDC046000401007F
:1017B00010B5034BDC331868FFF758FF10BDC04667
:1017C0000004010010B5034BE0331868FFF74EFF2B
:1017D00010BDC0460004010010B50420FFF7AAFEAA
:1017E000002800D1FF3010BD802010B5C002FFF7E7
:1017F000A1FE002800D1FF3010BD10B50820FFF772
:1018000099FE002800D1FF3010BD802010B5C00027
:10181000FFF790FE002800D1FF3010BD802010B5EA
:101820000001FFF787FE002800D1FF3010BD8020A7
:1018300010B54001FFF77EFE002800D1FF3010BD3B
:10184000802010B58001FFF775FE002800D1FF3021
:1018500010BD802010B5C001FFF76CFE002800D13C
:10186000FF3010BD802010B50002FFF763FE002896
:1018700000D1FF3010BD802010B54002FFF75AFEA6
:10188000002800D1FF3010BD802010B58002FFF786
:1018900051FE002800D1FF3010BD000030B50024FB
:1018A000064B07480749C258150E04D11A60043385
:1018B0008B42F8D130BD1C60F9E7C046845001204E
:1018C00060B4FFDF9C500120064B002806D0E021C9
:1018D000054A8901116001221A6070471E211A68A9
:1018E0000A40F9E70400004000000120054B0128F0
:1018F00003D118680F231840704718688006800FBE
:10190000FAE7C0460800004000280CD00121002A58
:1019100005D002231943064B490019607047002B7C
:10192000F9D00823F6E7481E81418900EFE7C04659
:10193000040000408023DB051A680723416910B5C5
:101940000B40134319000822447C9143002C01D022
:101950001A43110010220B00047C9343002C01D089
:1019600013000B436021C268447A52010A401A43B3
:10197000130020318B43002C01D00B001343027A5B
:10198000002A0CD08022520013430278002A09D08A
:101990008022520113438022D205136010BD034AF6
:1019A0001340F2E7024A1340F5E7C046FFFEFFFF8F
:1019B000FFEFFFFFE022084B920110B51A600122F1
:1019C0000649074C0A60186021680800104011425F
:1019D000FAD1186010BDC04600000120040000408C
:1019E000080001200A22014B1A60704704000040E1
:1019F00070B52026114C25683543561E25600125FB
:101A0000022E01D8150401350D4A15600D4D2860D0
:101A10000D480160C04601210C4E306805000D40A4
:101A20000842FAD11560002B06D1094B2022186814
:101A300023689343236070BD064BF7E708500120ED
:101A400010C0002000C0002004C0002014C00020EE
:101A500008C000200CC000202021084A10B51368DF
:101A600007488B430B431360C02304689B04234344
:101A7000036013688B43136010BDC04608500120FB
:101A800010C000202021064A13688B430B431360CB
:101A9000044B1868136880058B43C00F13607047B0
:101AA0000850012014C000202021064A13688B43EF
:101AB0000B431360044B18681368C0058B43C00FB9
:101AC000136070470850012014C00020044B10B56B
:101AD000FC331A6B130C012B01D11343984710BD33
:101AE00000040100F0B585B072B60122A14B52424C
:101AF000A149DA670A68002A18D013070ED5002317
:101B00009E4803609E4803609E4803609E480360B1
:101B10009E4803609E4803609E480360930703D578
:101B2000C0229D4B92001A6000230B60C02301224B
:101B30009A4C5B005242E25062B600F055FD00F054
:101B400033FDFEF7B3FCFEF7A1FC954A954B126DF1
:101B500003929A421CD10022052011000025FFF7B4
:101B600051FB052301222900019328002B00009539
:101B7000FFF7FCFA2A0029000620FFF743FB0623A3
:101B80000122019329002B0028000095FFF7EEFAAF
:101B90000025854B854A1A60002228000135110076
:101BA000EDB2FFF72FFB052DF6D1023500222800FC
:101BB00001351100EDB2FFF725FB102DF6D1C02540
:101BC0007B4AFF21136A40201B021B0A1362C023B9
:101BD000C027C0262D02AC469B00E2583F048A4332
:101BE0000243E250E058734A360610402843E05062
:101BF000E058714D28403843E050E05865460002F7
:101C0000000A3043C026E0500433E0588843304394
:101C1000E050E05810402843E050E058664D28401E
:101C20003843C027E050E0583F060002000A38431E
:101C30008027E0500433E0583F0288430643E650D3
:101C4000E058802610403843E050E05836042840E1
:101C500080253043E050E0582D060002000A28435A
:101C6000E0500433E058884384468020654628438A
:101C7000E050E058504D10400743E750E058054011
:101C80002E43E650E0580002000AE0500433E058CA
:101C900005008D43402029000143E150E1581140E7
:101CA0008022D2010A43E25000F07EFCFEF746FE9D
:101CB000FFF79CF8FEF7BBFEFFF797F800F066FA17
:101CC00000F0C8FCFFF7DCF9FFF7B4FAFFF7E6FD18
:101CD000334C3A4B626D03929A423FD0002003236B
:101CE0000200010001900093023B01F08BFAE36CCB
:101CF000039303981B0E01D096208001983401F0C5
:101D000025FA2F4B22689A421BD000220221100094
:101D1000FFF778FA0024012320001A00190001942B
:101D20000094FFF723FA022221001000FFF76AFA5D
:101D30000223012201932100230010000094FFF7E9
:101D400015FAFFF783FC002104220091012301F022
:101D5000C3FB01221100100001F096FA194B1A681A
:101D600003920399184A914202D1586800F0D6FBB9
:101D700030BFFDE704E100E008500120007C0120B5
:101D8000107C0120307C0120507C0120707C0120DF
:101D9000907C0120B07C01203010012000E100E0A7
:101DA00000040100F50FEB5DE45001201111111149
:101DB00000ED00E0FF00FFFFFFFF00FF44332211B2
:101DC000BAABBAAB00080100002002000022F0B557
:101DD00015001400184B1A609A800126174F510005
:101DE000795AD000CF0A37403C439E18CFB23772A1
:101DF000E026F60031420FD09C71002D00D0186013
:101E00004905480F196809181960012181400139F5
:101E10009B180F401F72F0BD8026B601314204D0DE
:101E20009C71002DF7D01860F5E7013201250830CC
:101E3000302AD2D19C71F6E71C010200A0000020DC
:101E400010B5114B9879002819D11A68072A04D1C6
:101E50001A7A013082431A7210BD062AFCD91B7A05
:101E600004211C008C43932C01D0952B03D113002B
:101E7000103B202B05D95307EED10220ECE70020C0
:101E8000EAE70320E8E7C0461C0102003A4B1A7952
:101E9000012A07D1187A262803D0522801D03528E4
:101EA0000AD17047022A55D1187A48282BD005D874
:101EB000302820D0472822D00020F2E7502817D021
:101EC00002006D32D2B2042A05D8012191400A00E5
:101ED00015210A421BD172282ED01CD8702835D06B
:101EE00071282FD06028E7D11A68382AE4D126E07B
:101EF0005A7A002AE0D11B68202BDDD1D1E75A7A2B
:101F0000112AD9D1F7E75A7A122AD5D1F3E71B68FB
:101F1000482BD1D1C5E79028E6D005D80200803AF9
:101F2000D2B2022AE0D9C7E7FF28C5D11A68282A09
:101F3000C2D1D871FE38B4E71A68402ABCD1D87132
:101F40000120AEE71A68482AB6D1F8E71A68582A7D
:101F5000B2D1F4E70020032AA3D1187A02006D322F
:101F6000D2B2042AA8D801239340152213405A1E46
:101F700093415B42184094E71C010200034B044A62
:101F80001A608022034B92001A60704714A0002050
:101F90006363000010A000200022024B1A609A80A8
:101FA0007047C04654010200044B10B51C68FFF78F
:101FB000E5FF63425C41E0B210BDC0460CA00020CA
:101FC000F0B5154B5A79932A04D00020134D952A69
:101FD00001D0F0BD124D00215C7A2609B21ED2B2AA
:101FE000C8B282420FD80120042AF2D89B19AA5CF9
:101FF0001B7A53400F221440A0400138184043423E
:102000005841C0B2E5E7685C01315F187F7A8742CA
:10201000E6D00020DDE7C0461C01020012010200EC
:102020000D010200F7B52E4F2E4E7B7935781C003E
:102030000193FD236D341C403B79032B31D1002CDF
:102040004BD1FFF7BDFF002847D00F257A7A2649EC
:102050001309023BDBB2D8002A4082182820821ADA
:102060000A60019A932A0AD120488E3AD21AC318DC
:10207000944210DB01221C4B1A713078FEBD052200
:102080001B48D21AC3189442F4DA1D5D08190134B2
:102090008571E4B2F7E71D5D081901348571E4B27A
:1020A000E6E7002C19D1FFF77FFF002815D0FFF7D6
:1020B00087FF002811D07B7A702B0ED108220A4BA3
:1020C0001A60073A5A717A79932A02D18F3A9A7133
:1020D000D0E701359C713570CCE7013D3570CCE718
:1020E0001C01020018010200540102000D0102004F
:1020F0001201020070B5124C6379012B11D1E37902
:10210000104DFF2B04D12900E01DFEF79DFE06E0D7
:10211000FFF74AFF0028F6D110220B4B0CC5062012
:1021200070BD0320482BFBD0022219009143502997
:10213000F6D0262BF4D000230249E371E01DE4E73A
:102140001C010200540102000101AAAA1021024B45
:10215000024A06C37047C046540102000101A5A50A
:1021600001222020054B1A60054BD968996005496A
:102170000B6803430B60044B1A6070473460012006
:102180000000002008A0002028600120E023F7B50F
:102190002D4A9B00D35C2D4A052B05D12C480133D9
:1021A000C15CD154013BFBD27821177849423B00F6
:1021B0008C46957856786B4073404B402549DBB28E
:1021C00000930B706346D07814795179927901921B
:1021D000214A1370009B57701371204B9670D57075
:1021E0005C70019A44409970614051401870DA70F7
:1021F0001971002380211A4A49001370194A13707B
:10220000194A13680B431360184B194A1949DA60CD
:10221000194A5A60194A1A601A00FC329160184A29
:1022200013600122174B1A60FFF79AFFC021164B6B
:10223000164A49005A501A60154A61391368FF3925
:102240000B431360F7BDC046000001000000020010
:10225000800301000C0102000D01020012010200C6
:1022600017010200180102000850012000000020A0
:10227000F102245D00A00020FE00002004A0002048
:10228000086001200460012000E100E0010001007D
:1022900008A00020064B10B51B685B0701D4FFF7B0
:1022A00075FFC0238021034A5B004902D15010BD55
:1022B0001C8C012000E100E070B528490B79002B4F
:1022C00002D1FFF74DFF70BD0A68012507241000F9
:1022D000234B20401D700023224206D00402214BD4
:1022E0008879A033204318802B00D0081E4A8342EF
:1022F00028D34C791D48002C2BD01D4C1B19802451
:102300005B00D55A64012C43D45220240368234334
:1023100003600120174B184C18600B68DB08013B69
:10232000190183400C430F49D318FC314B60C02383
:10233000124A5B000C61CC60D050114B1860114BFD
:102340001860C0E7CD18AD795C00013315539BB21E
:10235000CDE720240368A343DAE7C0465401020016
:102360001701020000000020A000002008A00020AB
:10237000FFFFFF7F30600120010000D500E100E099
:102380002860012014600120F7B5FFF71FFDFFF75B
:1023900057FD534C2071FFF779FD6071FFF7FCFD8D
:1023A000504D2E78062E1FD8300001F07FF9042002
:1023B000247A202492006379262B01D0522B13D14A
:1023C000494B0521187801F001FA01231A00C9B21E
:1023D0008A4011004022454C0A43A2710022E2715A
:1023E0001032226023712B70FFF766FFF7BDFFF7F5
:1023F00019FE2870F8E76379502B04D1FFF7D4FD5C
:1024000003230028EFD16379472B0FD1FFF7CCFDD1
:1024100000280BD0A379002B05D11021334B344A6F
:1024200006C30623DFE7FFF791FEDDE76379302B74
:1024300034D1304A4D33FF33D35801931B0C012B59
:1024400022D18021019B49009A7B0232D200101CCC
:102450008A4200D9081C80B2647A244AA400A042AF
:1024600015D90021FF271B1965183E00A84200DD81
:102470005E5C55180131AE711029F5D180231360CF
:102480000223FF339380AFE760201B4BE4E7042374
:102490001360033B938000239371A5E7023E2E70E7
:1024A000A2E76379522B9FD10F4B0521187801F0D9
:1024B0008DF901221300C9B28B40190040230B4C47
:1024C0000B43A3710023E3711033236022710C3B93
:1024D00089E7A379002BA6D1FFF70CFE89E7C04658
:1024E0001C010200180102000C010200540102004C
:1024F0000101474700040100A003010010B5064B8D
:102500001A78002A04D000221A70FFF729FE10BDA5
:10251000FFF73AFFFBE7C046170102008D46004770
:1025200070470000044B002804D001221A60034BBE
:10253000196070471860FAE70078012004780120DC
:10254000014B18687047C046087801200320044BEF
:102550001B68013B834201D8024AD05C7047C046E9
:102560001474012020380000002801D0022001430B
:10257000002A01D004221143012B01D10733194352
:10258000064B074A1960802311681B020B43136036
:102590000122044B1A6030BF7047C0460874012006
:1025A000287401200C7401200C4B0D4A196801237A
:1025B0001268920819420CD01A4209D1094A1168CE
:1025C000C90A194204D18021136809010B43136021
:1025D00070471A42FCD1034AF5E7C0461074012047
:1025E0001C8C01205474012013B501240D4B1B6871
:1025F000234215D0C0460C4B9847C046002211001C
:102600001000FEF7FFFD20000021FEF795FD0021E0
:1026100022000B00200001910091FEF7A7FD30BFC2
:1026200013BDC0462C8C012001000020272805D8AE
:102630008008013800D27047C046FAE70022044BF8
:1026400058609A6007321A6030BF033A1A60F2E7A6
:1026500010E000E073B58025174A2D0213682B4265
:1026600004D013685B045B0C136073BDC52213496F
:1026700092008A58124B134C01929A420CD00226B7
:1026800001252368334202D123682B42EDD08020FC
:102690000002FFF7CBFFF4E7FEF750F902262368AC
:1026A000334204D12368DB07DFD530BFDDE72800E4
:1026B000FFF7BCFFF3E7C0462874012000000100CB
:1026C000BAABBAAB388C012070470000074B10B58D
:1026D0001B68074CDB0601D5064B05E0FDF7E6FE5F
:1026E000054B1B681A0CF7D1236010BD2474012020
:1026F0001C740120FF7F00000C030100054A1368D1
:10270000002804D0802149020B431360704702491E
:102710000B40FAE71C740120FFFFFEFF034B1A6811
:102720001868824200D018687047C04620740120A3
:1027300030B5FF2503242A000440E400A2408901AB
:102740002940D243A140C3B200280ADBC0240B4B6E
:1027500080088000C018A40003591A401143015199
:1027600030BD0F200340083B05489B089B001B1809
:10277000D86902401143D961F2E7C04600E100E0A8
:1027800000ED00E070B50125164B00241E682E42B6
:1027900003D01C68AC431C602C001D68AD0706D537
:1027A000002804D002241868A0431860013C18686F
:1027B000400706D5002904D004200124196881436C
:1027C0001960196809060AD5002A08D080211A68FC
:1027D0008A431A6098204000FFF728FF01E0012C8F
:1027E000F8D070BD00040040F7B508AC24781C4D4B
:1027F000A44609AC27780AAC26780BAC2478009460
:102800000CAC247801942C68640A6402002801D17D
:1028100001300443002901D102310C43002A01D1C7
:1028200004321443002B01D108331C436346002BB0
:1028300001D110331C43002F01D120231C43002E53
:1028400001D140231C43009B002B01D180331C434A
:10285000019B002B02D080235B001C432C60F7BD42
:1028600000040040044A0549136880050B408009B4
:10287000184310607047C04600040040FFFF00FC92
:10288000094B10B51A68520708D40422102419689D
:102890000A431A60054B1B68234200D010BDFF207D
:1028A000FFF7C4FEF6E7C046005001201474012073
:1028B000094B10B51A68520708D5042110241A686C
:1028C0008A431A60054B1B68234200D110BDFF20CC
:1028D000FFF7ACFEF6E7C04600500120147401205B
:1028E000F8B514000822154F1E003B680D009343F5
:1028F0003B60FFF7B7FF202298203B6840009343DE
:102900003B60FFF793FE0E480E4B026836041A40F8
:10291000F8235B031E400323164306600168013D54
:1029200099431D400D4305600368074A2402134084
:102930008022520014401C430460F8BD0004004093
:1029400004040040FFFFE0FFFFFEFFFF30B500285A
:1029500020D18907C90F0225164C400100190468CF
:102960004900AC432143AA4004240160016822408D
:10297000A1430A432021026002685B018A430B40A5
:102980001343036003680C4A1A40EF231B041343EC
:10299000036030BD012802D189080140DBE702282D
:1029A000F7D10649044A0B681A40EF231B0413436E
:1029B0000B60EEE724040040FFFF00FF64040040CA
:1029C000F0B58BB004000F000192FEF7D5FD43B2C5
:1029D00005000793030600D5CCE043B29B086D4A7F
:1029E000C0339B009B5803212A000A408A40D340F1
:1029F0009B090B4068B200210693FFF799FE019AEC
:102A000039002000FFF7BEFE4022634E33681343B7
:102A10000022336033680292DB0506D4336801324A
:102A2000FF321343336001230293221E03940BD021
:102A300080215A4AC90013681B0C1B042B430B430B
:102A40001360574B574A0393391E04970BD08020CD
:102A50005549C0000B681B0C1B042B4303430B6040
:102A6000524B53490493019B0593002B0ED0514BBD
:102A70001B681B0C1B042B4318008023DB0018432E
:102A800003004C4803604C4B05934C4B0A431343E3
:102A90004B4AEF201360FFF7C9FD6BB2002B05DB3B
:102AA0001F2201232A4093403A4A13600122454BDA
:102AB00019681142FCD0022219681142FCD1049A13
:102AC000039B1343059A1A4313003D4A1360002CDD
:102AD0000DD020233C490A681A4254D03B4B2F4A60
:102AE0001C681368E4041B0C1B04E40C1360002F27
:102AF0000DD0202336490A681A4246D0354B2A4A5F
:102B00001F681368FF041B0C1B04FF0C1360019B60
:102B1000002B0DD0202330490A681A4237D02F4BA2
:102B2000244A1C681368E4041B0C1B04E40C1360A7
:102B30004022336893433360029B012B03D13368F7
:102B4000274A13403360FEF717FD069940B2FFF79E
:102B5000EFFD079B002B09DB1F2001230540AB4045
:102B6000204AD367BFF34F8FBFF36F8F38042043E2
:102B70000BB0F0BD0F230340083B1B4A9B089B0092
:102B80009B185B682FE730BFA5E730BFB3E730BFC6
:102B9000C2E7C04600E100E00850012028040040E0
:102BA000C10C0000810C000048040040C20C000071
:102BB000820C000068040040C40C0000840C00007B
:102BC00000000120080400403404004030040040AC
:102BD000540400405004004074040040700400405D
:102BE000FFFEFFFF04E100E018ED00E0044B10B52C
:102BF000FC335A68130C012B01D11343984710BDC5
:102C000000040100074B10B51A68120703D508210C
:102C10001A688A431A60FFF725FE98204000FFF7E4
:102C200005FD10BD00040040F0B585B00F22274E11
:102C30000190002841D1336893431A0004231343C1
:102C400033600F270A23224D224C2A682248BA43B8
:102C500013432B602A68214B1A4080239B021343A5
:102C600040222B6023689343134323608023226810
:102C7000DB01024013430022236011000120FFF713
:102C80009FFE402233680390BB4333602B68134997
:102C9000BB432B602B6880B20B402B6023689343AF
:102CA000236023680C4A13402360019B012B02D14F
:102CB0000233584380B205B0F0BD019B012BC0D157
:102CC000336893431A000A23B9E7C046188C0120E1
:102CD000348C0120008C01207F00C0FFFFFFFDFF2E
:102CE000F0B50426050005A804781548B446076821
:102CF0003E43002902D13E0061468E4311490660E1
:102D00002E02114D086835432840D51E0D2D00D9DF
:102D100008221025013A6D422A43024010009035E6
:102D2000A843012C01D12800104340240200A243F3
:102D3000002B01D12200024330239A430A60F0BDE8
:102D40000420012000200120FF00FFFF094A30B5C8
:102D5000146802252300AB43002801D02B00234335
:102D600001241800A043002901D02000184310605E
:102D700030BDC0460420012030B5451EA84103AC3B
:102D80002478C000002901D004210843002A01D082
:102D900002221043002B01D001231843104B18606E
:102DA000092C09D10F4B02221A601F231C401E3B25
:102DB000A3400D4A136030BD0A2C01D10B4BF2E742
:102DC0000B2C01D10A4BEEE70C2C01D1094BEAE7A1
:102DD0000D2C01D1084BE6E70E2CECD1074BE2E7B6
:102DE000142001208450012000E100E088500120DF
:102DF0008C500120905001209450012098500120C7
:102E00000A4B10B5FC33DA6A0400130C012B01D114
:102E10001343984763B2002B07DB1F200123C02216
:102E20000440A340024952008B5010BD0004010031
:102E300000E100E0FEE7000070B500F071F9114B11
:102E40001148834211D30020104B11498B4217D3F4
:102E5000FEF748FE1C68910064585D6801326C50B2
:102E600099688A42F6D30C33EBE70022F8E71D6835
:102E70009400605101325C68A242F8D30833E5E760
:102E80000022F8E7403800004C3800004C380000C1
:102E90004C38000030B50825064C23682B432360CE
:102EA000012901D102231843034B1860034B1A6018
:102EB00030BDC04608500120007C0120047C012068
:102EC000014B18687047C046087C012010B50824E3
:102ED000144A13682343136042780378012A01D10E
:102EE000013213438278012A01D103321343C2789D
:102EF000002A01D0082213430279002A01D01022AF
:102F000013434279012A01D11F3213438279002AE7
:102F100001D040221343044AC9B2490189180B6009
:102F200010BDC04608500120107C012010B50824B7
:102F3000064AC9B21368490123431360044BC918F8
:102F40000123002800D002230B6010BD085001208F
:102F5000147C012010B50824044AC9B21368490141
:102F600023431360024BC918086010BD08500120AC
:102F7000187C0120024BC0B24001C01800687047A5
:102F8000187C0120024BC0B24001C0180068704795
:102F90001C7C0120024BC0B24001C0180068704781
:102FA000207C01209BB212041A4309060A43C00781
:102FB0000243082005490B6803430B60009B04494A
:102FC000DBB25B015B181A607047C04608500120F5
:102FD000247C012030B508251D4C23682B43236039
:102FE0001C4B4401E3181960012304308340092A73
:102FF00019D119490B608021184B0906E318196093
:1030000053B2002B05DB1F231A401E3B9340144A8A
:1030100013603F22134BE3181A60134BE41801238B
:10302000236030BF30BD0A2A01D11049E2E70B2AE4
:1030300001D10F49DEE70C2A01D10E49DAE70D2A4A
:1030400001D10D49D6E70E2AD5D10C49D2E7C046A9
:1030500008500120187C012084500120247C01208C
:1030600000E100E0107C0120147C01208850012048
:103070008C50012090500120945001209850012044
:10308000044B10B5FC339A68130C012B01D1134388
:10309000984710BD00040100044B10B5FC33DA68FA
:1030A000130C012B01D11343984710BD00040100FC
:1030B000044B10B5FC331A69130C012B01D11343D7
:1030C000984710BD00040100044B10B5FC335A6949
:1030D000130C012B01D11343984710BD00040100CC
:1030E000044B10B5FC331A6A130C012B01D11343A6
:1030F000984710BD00040100044B10B5FC335A6A18
:10310000130C012B01D11343984710BD000401009B
:10311000014B024A1A60704708000200003FAB01F1
:10312000014B024A1A60704708000200003FAB01E1
:103130000821044B044A1068084202D0013B002BCE
:10314000F9D170478138010018100120F8B5C42367
:10315000254A9B00D458E30000D5244C00230A21C3
:103160001A00FEF745FC0023010164201A006043A9
:10317000FA26FEF73DFC0023B6001A0031000400D9
:10318000FEF736FC0500300000236843201A80015A
:10319000174FF5301A003100FF30FEF729FC3B686D
:1031A00001265B081A0004003240334204D1022198
:1031B00016003B680B433B60FFF7BAFF0D4B0E490F
:1031C0001A680D603F250D492C400868A843044348
:1031D0000C600B49086808601A60002E03D10222B7
:1031E0003B6893433B60F8BD00000100003FAB012A
:1031F0000850012030100120241001202810012047
:103200002C100120F7B508AC24781C4D01942E68D1
:1032100009AC24787608A44637000124009327409F
:10322000264204D102262C6834432C603C00431E05
:103230009841134E40003768002901D104310843FA
:10324000002A01D008221043009B002B01D010233C
:1032500018436022019B5B01134018436346002B17
:1032600001D080231843074B18603760002C03D12E
:1032700002222B6893432B60F7BDC0460850012003
:10328000301001202C100120F8B516000222050094
:10329000104C0F00236813432360FFF749FF2B00F6
:1032A000002F02D080239B002B43002E02D08022CF
:1032B00052001343084A02261360002D04D02368ED
:1032C000B34333432360F8BDFFF732FF2368B343B2
:1032D000F8E7C0460850012030100120F8B500245E
:1032E000102620270D4D2B68DB089C4200D3F8BD2B
:1032F0000B4B1B6833420ED00A4B0B4A1168394204
:1033000002D0013B002BF9D12D19AA79074B0134CA
:103310001A60E4B2E6E7FFF70BFFF5E7C001020031
:103320002C1001208138010018100120001001200C
:10333000F0B55E4B85B0FC339A6A00240390130C01
:10334000012B03D11343984705B0F0BD584E594D9A
:1033500031002800FDF752FE1022574B1B68134224
:103360004AD0210068782A78544B9C460EE0544B92
:103370001F68FF233B40802B32D021D8712B31D0E6
:1033800018D8602B24D00C00702B30D06346102747
:103390001B683B422ED10029E9D0687001202A70B9
:1033A000020001950295A2423FD9002824D00023B3
:1033B0001A004FE00C00722BE8D11A00062413E02B
:1033C000902B05D006D8812B02D00C00822BDDD1AA
:1033D0001A0003E00C00FF2BD8D1FF22052403E0E4
:1033E0008022FBE71A0007240121F8B2BCE71A008B
:1033F0000924F9E70029D0D1324B334A1A606B46D1
:103400001B7B5BB2002B9FDB1F20039BC022034072
:103410001800012383402D4952008B5094E7013B53
:103420009BB2002B02D1180005E0294B6146102702
:1034300009683942F3D1224B02991B6801328B7023
:103440000B000133D2B20293ADE701990133087842
:10345000DBB24240019901310191A342F5D1EB1851
:103460005B78934208D0AC23B371AB3B3371073325
:103470003360FFF733FFBFE76B78602B11D1AA7879
:10348000042A0ED1F380134BB360012333712F3321
:103490003360FFF723FFFDF7A9FC4068FFF756FEF6
:1034A000AAE731002800FDF7CFFCE2E700040100A5
:1034B000C00102008C0102003C1001201810012004
:1034C0000010012044100120FF07000000E100E08F
:1034D0001027000000000460F7B51A4E08AC3568EC
:1034E00027786D08012401932B002340254204D145
:1034F000022534682C4334601C000500093DEBB202
:10350000052B1DD8104BAD00ED1801232B60834017
:103510000E4D2B60C9000A43019B0D490A605A1EDB
:1035200093411B01002F01D020221343094A116847
:103530000B431360002C03D10222336893433360A2
:10354000F7BDC046085001208450012000E100E092
:1035500034100120381001201021024A13680B4357
:1035600013607047085001200A4B01211A68D206E7
:103570000ED5094A1068084206D008490848086074
:1035800080211160BFF34F8F10211A688A431A609F
:103590007047C04608500120000C01201C0C01207F
:1035A00051E5CC1A013B10B5DCB20023032C01D845
:1035B000084B1B5D1B01002801D00120034300299B
:1035C00001D004210B43002A01D002221343024AF6
:1035D000136010BD24380000000C01200022014BB4
:1035E0001A6070471C0C0120014B024A1A60704798
:1035F0001C0C012051E5CC1A034B044A1A6000222E
:10360000034B1A607047C0461C0C012051E5CC1AD0
:10361000180C0120074B084A10B51A600022074B0E
:103620001A60074BFC331A6E130C012B01D11343A4
:10363000984710BD1C0C012051E5CC1A140C012038
:1036400000040100094B0A4A09021A60094A090AE2
:10365000136800021B0E1B0619431160064A000A7C
:1036600013681B0E1B061843106070471C0C0120CA
:1036700051E5CC1A080C01200C0C0120084B094A1A
:103680001B6811681B02002009021A0A994206D21F
:10369000054B18680002000A824280414042704790
:0C36A000040C01200C0C0120080C01207F
:1036AC0002B4714649084900095C49008E4402BCC9
:1036BC007047C046002243088B4274D303098B42E7
:1036CC005FD3030A8B4244D3030B8B4228D3030CE6
:1036DC008B420DD3FF22090212BA030C8B4202D388
:1036EC001212090265D0030B8B4219D300E0090AB0
:1036FC00C30B8B4201D3CB03C01A5241830B8B42B9
:10370C0001D38B03C01A5241430B8B4201D34B03A1
:10371C00C01A5241030B8B4201D30B03C01A524106
:10372C00C30A8B4201D3CB02C01A5241830A8B428B
:10373C0001D38B02C01A5241430A8B4201D34B0274
:10374C00C01A5241030A8B4201D30B02C01A5241D8
:10375C00CDD2C3098B4201D3CB01C01A524183098C
:10376C008B4201D38B01C01A524143098B4201D3C6
:10377C004B01C01A524103098B4201D30B01C01AF1
:10378C005241C3088B4201D3CB00C01A524183086B
:10379C008B4201D38B00C01A524143088B4201D398
:1037AC004B00C01A5241411A00D2014652411046F8
:1037BC007047FFE701B5002000F006F802BDC046D7
:0C37CC000029F7D076E770477047C04630
:1037D800290A00002B0A00003D0C00002F0A0000F7
:1037E800850A0000850D0000D30A0000ED0A0000DC
:1037F800030B0000BD0A0000430A0000190B00007B
:10380800A30A0000590A00006F0A0000330B0000E9
:10381800910A0000B10D0000000103020102040832
:0C3840004C3800000000020003000000F3
:0C384C0005C0BADCAFFE0200003FAB017B
:10385800AABEAABEAABEAABEAABEAABEAABEAABE20
:10386800AABEAABEAABEAABEAABEAABEAABEAABE10
:10387800AABEAABEAABEAABEAABEAABEAABEAABE00
:10388800AABEAABEAABEAABEAABEAABEAABEAABEF0
:0C3FF4004C400000A55DC40029AFF8435C
:0400000300002E3992
:00000001FF
